S0150000496E74657272757074546573742E73726563A2
S11300000C942A000C9436000C9450000C946A0052
S11300100C9434000C9434000C9434000C9434008C
S11300200C9434000C9434000C9434000C9434007C
S11300300C9434000C9434000C9434000C9434006C
S11300400C9434000C9434000C9434000C9434005C
S11300500C94340011241FBECFE5D8E0DEBFCDBF21
S11300600E9484000C94A1000C9400001F920F9233
S11300700FB60F9211242F938F939F93959A2FEF7E
S113008089E698E1215080409040E1F700C00000EB
S11300909F918F912F910F900FBE0F901F901895E5
S11300A01F920F920FB60F9211242F938F939F9349
S11300B0969A2FEF89E698E1215080409040E1F72D
S11300C000C000009F918F912F910F900FBE0F9051
S11300D01F9018951F920F920FB60F9211242F9311
S11300E08F939F93979A2FEF89E698E12150804050
S11300F09040E1F700C000009F918F912F910F90E5
S11301000FBE0F901F90189585B7816085BF85B786
S11301108D7F85BF85B7846085BF85B7886085BFBF
S113012084B7806484BF8BB780628BBF8BB78064D5
S11301308BBF8BB780688BBF789495989698979867
S1090140FCCFF894FFCF90
S9030000FC
