:100000000C942A000C943F000C943F000C943F0089
:100010000C943F000C943F000C943F000C943F0064
:100020000C943F000C943F000C943F000C943F0054
:100030000C943F000C943F000C943F000C943F0044
:100040000C943F000C943F000C943F000C943F0034
:100050000C943F0011241FBECFE5D8E0DEBFCDBF1A
:1000600010E0A0E6B0E0E8EDF0E002C005900D92EF
:10007000A636B107D9F70E9441000C946A000C948F
:100080000000CF93DF9300D000D000D0CDB7DEB713
:1000900080EE81BB86E0E0E6F0E0DE0111960190A3
:1000A0000D928A95E1F79E01295F3F4FFE0131963F
:1000B00081918295880F807E82BB4FE382E49FE02E
:1000C000415080409040E1F700C00000E217F30784
:0800D00079F7ECCFF894FFCFA3
:0600D80000010307030113
:00000001FF
