S01200004C43445F4B65797061642E7372656382
S11300000C942A000C943F000C943F000C943F0085
S11300100C943F000C943F000C943F000C943F0060
S11300200C943F000C943F000C943F000C943F0050
S11300300C943F000C943F000C943F000C943F0040
S11300400C943F000C943F000C943F000C943F0030
S11300500C943F0011241FBECFE5D8E0DEBFCDBF16
S113006010E0A0E6B0E0EAE7F1E002C005900D92EE
S1130070AA38B107D9F70E94B4000C94BB000C94C1
S11300800000C3988BE49DE10197F1F700C00000E4
S1130090C39A08951ABAC29AC1980E9441008FEF78
S11300A08ABBC2980895CF93C82F0E944A00CBBB45
S11300B088B3897F88BB0E944100CF91089581E075
S11300C00E945300089587E893E10197F1F700C077
S11300D000000E944A0087B38E6087BBC3988FEFED
S11300E08ABB0E945F0088E30E94530086E00E945E
S11300F0530080E80E9453008FE00E94530008954B
S1130100CF93C82F0E944A00CBBBC298C19A0E94C9
S11301104100CF9108950F931F93CF93DF93FC0178
S113012020812223E1F08C01C0E0D0E02196C0318F
S1130130D10521F480EC0E94530008C0C032D105DF
S113014029F40E945F0080E80E945300F801819125
S11301508F010E948000F80180818111E7CFDF9137
S1130160CF911F910F9108950E94630080E690E063
S10D01700E948B00FFCFF894FFCF2C
S113017A4141414141414141414141414141414161
S113018A4141414141414141414141414141414151
S10D019A41414141414141416200ED
S9030000FC
